{
  "contractName": "Superheroes",
  "abi": [
    {
      "constant": true,
      "inputs": [
        {
          "name": "",
          "type": "uint256"
        }
      ],
      "name": "superheroes",
      "outputs": [
        {
          "name": "id",
          "type": "uint256"
        },
        {
          "name": "name",
          "type": "string"
        },
        {
          "name": "avatar",
          "type": "string"
        },
        {
          "name": "category",
          "type": "string"
        },
        {
          "name": "description",
          "type": "string"
        }
      ],
      "payable": false,
      "stateMutability": "view",
      "type": "function"
    },
    {
      "inputs": [],
      "payable": false,
      "stateMutability": "nonpayable",
      "type": "constructor"
    },
    {
      "anonymous": false,
      "inputs": [
        {
          "indexed": false,
          "name": "author",
          "type": "address"
        },
        {
          "indexed": false,
          "name": "mark",
          "type": "uint256"
        },
        {
          "indexed": false,
          "name": "text",
          "type": "string"
        }
      ],
      "name": "NewReview",
      "type": "event"
    },
    {
      "anonymous": false,
      "inputs": [
        {
          "indexed": false,
          "name": "id",
          "type": "uint256"
        },
        {
          "indexed": false,
          "name": "name",
          "type": "string"
        },
        {
          "indexed": false,
          "name": "avatar",
          "type": "string"
        },
        {
          "indexed": false,
          "name": "category",
          "type": "string"
        },
        {
          "indexed": false,
          "name": "description",
          "type": "string"
        }
      ],
      "name": "NewSuperhero",
      "type": "event"
    },
    {
      "constant": false,
      "inputs": [
        {
          "name": "superHeroID",
          "type": "uint256"
        },
        {
          "name": "mark",
          "type": "uint256"
        },
        {
          "name": "reviewText",
          "type": "string"
        }
      ],
      "name": "review",
      "outputs": [],
      "payable": false,
      "stateMutability": "nonpayable",
      "type": "function"
    },
    {
      "constant": false,
      "inputs": [
        {
          "name": "name",
          "type": "string"
        },
        {
          "name": "avatar",
          "type": "string"
        },
        {
          "name": "category",
          "type": "string"
        },
        {
          "name": "description",
          "type": "string"
        }
      ],
      "name": "addSuperhero",
      "outputs": [
        {
          "name": "heroID",
          "type": "uint256"
        },
        {
          "name": "heroName",
          "type": "string"
        },
        {
          "name": "heroAvatar",
          "type": "string"
        },
        {
          "name": "heroCategory",
          "type": "string"
        },
        {
          "name": "heroDescription",
          "type": "string"
        }
      ],
      "payable": false,
      "stateMutability": "nonpayable",
      "type": "function"
    },
    {
      "constant": false,
      "inputs": [
        {
          "name": "heroID",
          "type": "uint256"
        }
      ],
      "name": "removeSuperHero",
      "outputs": [],
      "payable": false,
      "stateMutability": "nonpayable",
      "type": "function"
    },
    {
      "constant": true,
      "inputs": [],
      "name": "getSuperHeroes",
      "outputs": [
        {
          "components": [
            {
              "name": "id",
              "type": "uint256"
            },
            {
              "name": "name",
              "type": "string"
            },
            {
              "name": "avatar",
              "type": "string"
            },
            {
              "name": "category",
              "type": "string"
            },
            {
              "name": "description",
              "type": "string"
            }
          ],
          "name": "result",
          "type": "tuple[]"
        }
      ],
      "payable": false,
      "stateMutability": "view",
      "type": "function"
    },
    {
      "constant": true,
      "inputs": [
        {
          "name": "id",
          "type": "uint256"
        }
      ],
      "name": "getHero",
      "outputs": [
        {
          "components": [
            {
              "name": "id",
              "type": "uint256"
            },
            {
              "name": "name",
              "type": "string"
            },
            {
              "name": "avatar",
              "type": "string"
            },
            {
              "name": "category",
              "type": "string"
            },
            {
              "name": "description",
              "type": "string"
            }
          ],
          "name": "hero",
          "type": "tuple"
        }
      ],
      "payable": false,
      "stateMutability": "view",
      "type": "function"
    },
    {
      "constant": true,
      "inputs": [
        {
          "name": "superheroID",
          "type": "uint256"
        }
      ],
      "name": "getSuperheroReviews",
      "outputs": [
        {
          "components": [
            {
              "name": "author",
              "type": "address"
            },
            {
              "name": "mark",
              "type": "uint256"
            },
            {
              "name": "text",
              "type": "string"
            }
          ],
          "name": "reviews",
          "type": "tuple[]"
        }
      ],
      "payable": false,
      "stateMutability": "view",
      "type": "function"
    }
  ],
  "bytecode": "0x608060405234801561001057600080fd5b50d3801561001d57600080fd5b50d2801561002a57600080fd5b5033600460006101000a81548173ffffffffffffffffffffffffffffffffffffffff021916908373ffffffffffffffffffffffffffffffffffffffff160217905550611cbc8061007b6000396000f300608060405260043610610082576000357c0100000000000000000000000000000000000000000000000000000000900463ffffffff168062cbf868146100875780630938b5a3146100e257806321d801111461012557806328a5fa321461017c5780636362d27d146101d35780638261cf2b14610216578063ce1710131461025b575b600080fd5b34801561009357600080fd5b50d380156100a057600080fd5b50d280156100ad57600080fd5b506100c860048036036100c3919081019061155f565b6102b6565b6040516100d9959493929190611ad3565b60405180910390f35b3480156100ee57600080fd5b50d380156100fb57600080fd5b50d2801561010857600080fd5b50610123600480360361011e9190810190611588565b61055b565b005b34801561013157600080fd5b50d3801561013e57600080fd5b50d2801561014b57600080fd5b506101666004803603610161919081019061155f565b610740565b6040516101739190611a42565b60405180910390f35b34801561018857600080fd5b50d3801561019557600080fd5b50d280156101a257600080fd5b506101bd60048036036101b8919081019061155f565b610a56565b6040516101ca919061199e565b60405180910390f35b3480156101df57600080fd5b50d380156101ec57600080fd5b50d280156101f957600080fd5b50610214600480360361020f919081019061155f565b610bcb565b005b34801561022257600080fd5b50d3801561022f57600080fd5b50d2801561023c57600080fd5b50610245610d86565b60405161025291906119c0565b60405180910390f35b34801561026757600080fd5b50d3801561027457600080fd5b50d2801561028157600080fd5b5061029c6004803603610297919081019061149c565b611078565b6040516102ad959493929190611a64565b60405180910390f35b6000818154811015156102c557fe5b9060005260206000209060050201600091509050806000015490806001018054600181600116156101000203166002900480601f0160208091040260200160405190810160405280929190818152602001828054600181600116156101000203166002900480156103775780601f1061034c57610100808354040283529160200191610377565b820191906000526020600020905b81548152906001019060200180831161035a57829003601f168201915b505050505090806002018054600181600116156101000203166002900480601f0160208091040260200160405190810160405280929190818152602001828054600181600116156101000203166002900480156104155780601f106103ea57610100808354040283529160200191610415565b820191906000526020600020905b8154815290600101906020018083116103f857829003601f168201915b505050505090806003018054600181600116156101000203166002900480601f0160208091040260200160405190810160405280929190818152602001828054600181600116156101000203166002900480156104b35780601f10610488576101008083540402835291602001916104b3565b820191906000526020600020905b81548152906001019060200180831161049657829003601f168201915b505050505090806004018054600181600116156101000203166002900480601f0160208091040260200160405190810160405280929190818152602001828054600181600116156101000203166002900480156105515780601f1061052657610100808354040283529160200191610551565b820191906000526020600020905b81548152906001019060200180831161053457829003601f168201915b5050505050905085565b600073ffffffffffffffffffffffffffffffffffffffff163373ffffffffffffffffffffffffffffffffffffffff16141515156105cd576040517f08c379a00000000000000000000000000000000000000000000000000000000081526004016105c4906119e2565b60405180910390fd5b60006105d884610740565b600001511415151561061f576040517f08c379a000000000000000000000000000000000000000000000000000000000815260040161061690611a22565b60405180910390fd5b600360008481526020019081526020016000206060604051908101604052803373ffffffffffffffffffffffffffffffffffffffff168152602001848152602001838152509080600181540180825580915050906001820390600052602060002090600302016000909192909190915060008201518160000160006101000a81548173ffffffffffffffffffffffffffffffffffffffff021916908373ffffffffffffffffffffffffffffffffffffffff1602179055506020820151816001015560408201518160020190805190602001906106fc929190611293565b505050507f6c881ec046e8da311aeb0b911f4565ec6b4e5a996536e027169884f0d55d99e433838360405161073393929190611960565b60405180910390a1505050565b610748611313565b60008090505b600554811015610a4f578260008281548110151561076857fe5b9060005260206000209060050201600001541415610a425760008181548110151561078f57fe5b906000526020600020906005020160a0604051908101604052908160008201548152602001600182018054600181600116156101000203166002900480601f01602080910402602001604051908101604052809291908181526020018280546001816001161561010002031660029004801561084c5780601f106108215761010080835404028352916020019161084c565b820191906000526020600020905b81548152906001019060200180831161082f57829003601f168201915b50505050508152602001600282018054600181600116156101000203166002900480601f0160208091040260200160405190810160405280929190818152602001828054600181600116156101000203166002900480156108ee5780601f106108c3576101008083540402835291602001916108ee565b820191906000526020600020905b8154815290600101906020018083116108d157829003601f168201915b50505050508152602001600382018054600181600116156101000203166002900480601f0160208091040260200160405190810160405280929190818152602001828054600181600116156101000203166002900480156109905780601f1061096557610100808354040283529160200191610990565b820191906000526020600020905b81548152906001019060200180831161097357829003601f168201915b50505050508152602001600482018054600181600116156101000203166002900480601f016020809104026020016040519081016040528092919081815260200182805460018160011615610100020316600290048015610a325780601f10610a0757610100808354040283529160200191610a32565b820191906000526020600020905b815481529060010190602001808311610a1557829003601f168201915b5050505050815250509150610a50565b808060010191505061074e565b5b50919050565b606060036000838152602001908152602001600020805480602002602001604051908101604052809291908181526020016000905b82821015610bc05783829060005260206000209060030201606060405190810160405290816000820160009054906101000a900473ffffffffffffffffffffffffffffffffffffffff1673ffffffffffffffffffffffffffffffffffffffff1673ffffffffffffffffffffffffffffffffffffffff16815260200160018201548152602001600282018054600181600116156101000203166002900480601f016020809104026020016040519081016040528092919081815260200182805460018160011615610100020316600290048015610ba85780601f10610b7d57610100808354040283529160200191610ba8565b820191906000526020600020905b815481529060010190602001808311610b8b57829003601f168201915b50505050508152505081526020019060010190610a8b565b505050509050919050565b600460009054906101000a900473ffffffffffffffffffffffffffffffffffffffff1673ffffffffffffffffffffffffffffffffffffffff163373ffffffffffffffffffffffffffffffffffffffff16141515610c5d576040517f08c379a0000000000000000000000000000000000000000000000000000000008152600401610c5490611a02565b60405180910390fd5b60a060405190810160405280600081526020016020604051908101604052806000815250815260200160206040519081016040528060008152508152602001602060405190810160405280600081525081526020016020604051908101604052806000815250815250600082815481101515610cd557fe5b9060005260206000209060050201600082015181600001556020820151816001019080519060200190610d09929190611293565b506040820151816002019080519060200190610d26929190611293565b506060820151816003019080519060200190610d43929190611293565b506080820151816004019080519060200190610d60929190611293565b50905050600360008281526020019081526020016000206000610d839190611343565b50565b60606000805480602002602001604051908101604052809291908181526020016000905b8282101561106f578382906000526020600020906005020160a0604051908101604052908160008201548152602001600182018054600181600116156101000203166002900480601f016020809104026020016040519081016040528092919081815260200182805460018160011615610100020316600290048015610e715780601f10610e4657610100808354040283529160200191610e71565b820191906000526020600020905b815481529060010190602001808311610e5457829003601f168201915b50505050508152602001600282018054600181600116156101000203166002900480601f016020809104026020016040519081016040528092919081815260200182805460018160011615610100020316600290048015610f135780601f10610ee857610100808354040283529160200191610f13565b820191906000526020600020905b815481529060010190602001808311610ef657829003601f168201915b50505050508152602001600382018054600181600116156101000203166002900480601f016020809104026020016040519081016040528092919081815260200182805460018160011615610100020316600290048015610fb55780601f10610f8a57610100808354040283529160200191610fb5565b820191906000526020600020905b815481529060010190602001808311610f9857829003601f168201915b50505050508152602001600482018054600181600116156101000203166002900480601f0160208091040260200160405190810160405280929190818152602001828054600181600116156101000203166002900480156110575780601f1061102c57610100808354040283529160200191611057565b820191906000526020600020905b81548152906001019060200180831161103a57829003601f168201915b50505050508152505081526020019060010190610daa565b50505050905090565b6000606080606080611088611313565b600460009054906101000a900473ffffffffffffffffffffffffffffffffffffffff1673ffffffffffffffffffffffffffffffffffffffff163373ffffffffffffffffffffffffffffffffffffffff1614151561111a576040517f08c379a000000000000000000000000000000000000000000000000000000000815260040161111190611a02565b60405180910390fd5b60056000815480929190600101919050555060a06040519081016040528060055481526020018b81526020018a8152602001898152602001888152509050600081908060018154018082558091505090600182039060005260206000209060050201600090919290919091506000820151816000015560208201518160010190805190602001906111ac929190611293565b5060408201518160020190805190602001906111c9929190611293565b5060608201518160030190805190602001906111e6929190611293565b506080820151816004019080519060200190611203929190611293565b505050507ff16ec575b16e22b7921b0efd40fba0527c920741baf433ce9ad70bd4a31273296005548260200151836040015184606001518560800151604051611250959493929190611ad3565b60405180910390a1806000015181602001518260400151836060015184608001518393508292508191508090509550955095509550955050945094509450945094565b828054600181600116156101000203166002900490600052602060002090601f016020900481019282601f106112d457805160ff1916838001178555611302565b82800160010185558215611302579182015b828111156113015782518255916020019190600101906112e6565b5b50905061130f9190611367565b5090565b60a06040519081016040528060008152602001606081526020016060815260200160608152602001606081525090565b5080546000825560030290600052602060002090810190611364919061138c565b50565b61138991905b8082111561138557600081600090555060010161136d565b5090565b90565b6113e791905b808211156113e357600080820160006101000a81549073ffffffffffffffffffffffffffffffffffffffff021916905560018201600090556002820160006113da91906113ea565b50600301611392565b5090565b90565b50805460018160011615610100020316600290046000825580601f10611410575061142f565b601f01602090049060005260206000209081019061142e9190611367565b5b50565b600082601f830112151561144557600080fd5b813561145861145382611b6f565b611b42565b9150808252602083016020830185838301111561147457600080fd5b61147f838284611c2f565b50505092915050565b60006114948235611c25565b905092915050565b600080600080608085870312156114b257600080fd5b600085013567ffffffffffffffff8111156114cc57600080fd5b6114d887828801611432565b945050602085013567ffffffffffffffff8111156114f557600080fd5b61150187828801611432565b935050604085013567ffffffffffffffff81111561151e57600080fd5b61152a87828801611432565b925050606085013567ffffffffffffffff81111561154757600080fd5b61155387828801611432565b91505092959194509250565b60006020828403121561157157600080fd5b600061157f84828501611488565b91505092915050565b60008060006060848603121561159d57600080fd5b60006115ab86828701611488565b93505060206115bc86828701611488565b925050604084013567ffffffffffffffff8111156115d957600080fd5b6115e586828701611432565b9150509250925092565b6115f881611bfb565b82525050565b600061160982611bb5565b8084526020840193508360208202850161162285611b9b565b60005b8481101561165b57838303885261163d8383516117eb565b925061164882611be1565b9150602088019750600181019050611625565b508196508694505050505092915050565b600061167782611bc0565b8084526020840193508360208202850161169085611ba8565b60005b848110156116c95783830388526116ab8383516118c6565b92506116b682611bee565b9150602088019750600181019050611693565b508196508694505050505092915050565b60006116e582611bd6565b8084526116f9816020860160208601611c3e565b61170281611c71565b602085010191505092915050565b600061171b82611bcb565b80845261172f816020860160208601611c3e565b61173881611c71565b602085010191505092915050565b6000601782527f596f75206d7573742062652061207265616c20757365720000000000000000006020830152604082019050919050565b6000601682527f536f7272792c206f6e6c7920666f72206f776e657273000000000000000000006020830152604082019050919050565b6000601082527f4865726f206d75737420657869737473000000000000000000000000000000006020830152604082019050919050565b600060608301600083015161180360008601826115ef565b5060208301516118166020860182611951565b506040830151848203604086015261182e8282611710565b9150508091505092915050565b600060a0830160008301516118536000860182611951565b506020830151848203602086015261186b8282611710565b915050604083015184820360408601526118858282611710565b9150506060830151848203606086015261189f8282611710565b915050608083015184820360808601526118b98282611710565b9150508091505092915050565b600060a0830160008301516118de6000860182611951565b50602083015184820360208601526118f68282611710565b915050604083015184820360408601526119108282611710565b9150506060830151848203606086015261192a8282611710565b915050608083015184820360808601526119448282611710565b9150508091505092915050565b61195a81611c1b565b82525050565b600060608201905061197560008301866115ef565b6119826020830185611951565b818103604083015261199481846116da565b9050949350505050565b600060208201905081810360008301526119b881846115fe565b905092915050565b600060208201905081810360008301526119da818461166c565b905092915050565b600060208201905081810360008301526119fb81611746565b9050919050565b60006020820190508181036000830152611a1b8161177d565b9050919050565b60006020820190508181036000830152611a3b816117b4565b9050919050565b60006020820190508181036000830152611a5c818461183b565b905092915050565b600060a082019050611a796000830188611951565b8181036020830152611a8b81876116da565b90508181036040830152611a9f81866116da565b90508181036060830152611ab381856116da565b90508181036080830152611ac781846116da565b90509695505050505050565b600060a082019050611ae86000830188611951565b8181036020830152611afa8187611710565b90508181036040830152611b0e8186611710565b90508181036060830152611b228185611710565b90508181036080830152611b368184611710565b90509695505050505050565b6000604051905081810181811067ffffffffffffffff82111715611b6557600080fd5b8060405250919050565b600067ffffffffffffffff821115611b8657600080fd5b601f19601f8301169050602081019050919050565b6000602082019050919050565b6000602082019050919050565b600081519050919050565b600081519050919050565b600081519050919050565b600081519050919050565b6000602082019050919050565b6000602082019050919050565b600073ffffffffffffffffffffffffffffffffffffffff82169050919050565b6000819050919050565b6000819050919050565b82818337600083830152505050565b60005b83811015611c5c578082015181840152602081019050611c41565b83811115611c6b576000848401525b50505050565b6000601f19601f83011690509190505600a265627a7a72305820389a624460dad98bbae7e56a5fc0adf91b16de0d3e07835a13f7fc6ee0fadca96c6578706572696d656e74616cf50037",
  "source": "pragma solidity 0.4.25;\npragma experimental ABIEncoderV2;\n\ncontract Superheroes {\n  Superhero[] public superheroes;\n  mapping (uint => uint) superheroesVotes;\n  mapping (address => uint[]) userVotes;\n  mapping (uint => Review[]) superheroesReviews;\n\n  address private owner;\n\n  modifier onlyOwner() {\n    require(msg.sender == owner, \"Sorry, only for owners\");\n    _;\n  }\n\n  constructor() public {\n    owner = msg.sender;\n  }\n\n  uint superheroCount;\n\n  struct Review {\n    address author;\n    uint mark;\n    string text;\n  }\n\n  struct Superhero {\n    uint id;\n    string name;\n    string avatar;\n    string category;\n    string description;\n  }\n\n  event NewReview(address author, uint mark, string text);\n  event NewSuperhero(uint id, string  name, string avatar, string category, string description);\n\n  function review(uint superHeroID, uint mark, string memory reviewText) public {\n    require(msg.sender != address(0), \"You must be a real user\");\n    require(getHero(superHeroID).id!=0, \"Hero must exists\");\n\n    superheroesReviews[superHeroID].push(Review(msg.sender, mark, reviewText));\n    emit NewReview(msg.sender, mark, reviewText);\n  }\n\n  function addSuperhero(string memory name, string memory avatar, string memory category, string memory description) public onlyOwner returns (uint heroID, string memory heroName, string memory heroAvatar, string memory heroCategory, string memory heroDescription) {\n    superheroCount++;\n    Superhero memory newHero = Superhero(superheroCount, name, avatar, category, description);\n    superheroes.push(newHero);\n    emit NewSuperhero(superheroCount, newHero.name, newHero.avatar, newHero.category, newHero.description);\n    return (newHero.id, newHero.name, newHero.avatar, newHero.category, newHero.description);\n  }\n\n  function removeSuperHero(uint heroID) public onlyOwner {\n    superheroes[heroID] = Superhero(0, '', '', '', '');\n    delete superheroesReviews[heroID];\n  }\n\n  function string_tobytes( string memory s) pure internal returns (bytes memory result){\n    bytes memory b3 = bytes(s);\n    return b3;\n  }\n\n  function getSuperHeroes() public view returns (Superhero[] memory result ) {\n    return superheroes;\n  }\n\n  function getHero(uint id) public view returns(Superhero memory hero) {\n    for(uint i = 0; i<superheroCount;i++) {\n      if(superheroes[i].id==id) {\n        return superheroes[i];\n      }\n    }\n  }\n\n  function getSuperheroReviews(uint superheroID) public view returns(Review[] memory reviews) {\n    return superheroesReviews[superheroID];\n  }\n\n\n}\n",
  "sourcePath": "/Users/dzharkov/TourOfMastery/blockchain/tron/eCommerce-hello-world/contracts/Superheroes.sol",
  "compiler": {
    "name": "solc",
    "version": "0.4.25+commit.69a1e720.Emscripten.clang"
  },
  "schemaVersion": "2.0.1",
  "updatedAt": "2019-08-29T08:28:04.590Z"
}