{
  "contractName": "Superheroes",
  "abi": [
    {
      "constant": true,
      "inputs": [
        {
          "name": "",
          "type": "uint256"
        }
      ],
      "name": "superheroes",
      "outputs": [
        {
          "name": "id",
          "type": "uint256"
        },
        {
          "name": "name",
          "type": "string"
        },
        {
          "name": "avatar",
          "type": "string"
        },
        {
          "name": "category",
          "type": "string"
        },
        {
          "name": "description",
          "type": "string"
        }
      ],
      "payable": false,
      "stateMutability": "view",
      "type": "function",
      "signature": "0x00cbf868"
    },
    {
      "inputs": [],
      "payable": false,
      "stateMutability": "nonpayable",
      "type": "constructor",
      "signature": "constructor"
    },
    {
      "anonymous": false,
      "inputs": [
        {
          "indexed": false,
          "name": "author",
          "type": "address"
        },
        {
          "indexed": false,
          "name": "mark",
          "type": "uint256"
        },
        {
          "indexed": false,
          "name": "text",
          "type": "string"
        }
      ],
      "name": "NewReview",
      "type": "event",
      "signature": "0x6c881ec046e8da311aeb0b911f4565ec6b4e5a996536e027169884f0d55d99e4"
    },
    {
      "anonymous": false,
      "inputs": [
        {
          "indexed": false,
          "name": "id",
          "type": "uint256"
        },
        {
          "indexed": false,
          "name": "name",
          "type": "string"
        },
        {
          "indexed": false,
          "name": "avatar",
          "type": "string"
        },
        {
          "indexed": false,
          "name": "category",
          "type": "string"
        },
        {
          "indexed": false,
          "name": "description",
          "type": "string"
        }
      ],
      "name": "NewSuperhero",
      "type": "event",
      "signature": "0xf16ec575b16e22b7921b0efd40fba0527c920741baf433ce9ad70bd4a3127329"
    },
    {
      "constant": false,
      "inputs": [
        {
          "name": "superHeroID",
          "type": "uint256"
        },
        {
          "name": "mark",
          "type": "uint256"
        },
        {
          "name": "reviewText",
          "type": "string"
        }
      ],
      "name": "review",
      "outputs": [],
      "payable": false,
      "stateMutability": "nonpayable",
      "type": "function",
      "signature": "0x0938b5a3"
    },
    {
      "constant": false,
      "inputs": [
        {
          "name": "name",
          "type": "string"
        },
        {
          "name": "avatar",
          "type": "string"
        },
        {
          "name": "category",
          "type": "string"
        },
        {
          "name": "description",
          "type": "string"
        }
      ],
      "name": "addSuperhero",
      "outputs": [
        {
          "name": "heroID",
          "type": "uint256"
        },
        {
          "name": "heroName",
          "type": "string"
        },
        {
          "name": "heroAvatar",
          "type": "string"
        },
        {
          "name": "heroCategory",
          "type": "string"
        },
        {
          "name": "heroDescription",
          "type": "string"
        }
      ],
      "payable": false,
      "stateMutability": "nonpayable",
      "type": "function",
      "signature": "0xce171013"
    },
    {
      "constant": false,
      "inputs": [
        {
          "name": "heroID",
          "type": "uint256"
        }
      ],
      "name": "removeSuperHero",
      "outputs": [],
      "payable": false,
      "stateMutability": "nonpayable",
      "type": "function",
      "signature": "0x6362d27d"
    },
    {
      "constant": true,
      "inputs": [],
      "name": "getSuperHeroes",
      "outputs": [
        {
          "components": [
            {
              "name": "id",
              "type": "uint256"
            },
            {
              "name": "name",
              "type": "string"
            },
            {
              "name": "avatar",
              "type": "string"
            },
            {
              "name": "category",
              "type": "string"
            },
            {
              "name": "description",
              "type": "string"
            }
          ],
          "name": "result",
          "type": "tuple[]"
        }
      ],
      "payable": false,
      "stateMutability": "view",
      "type": "function",
      "signature": "0x8261cf2b"
    },
    {
      "constant": true,
      "inputs": [
        {
          "name": "id",
          "type": "uint256"
        }
      ],
      "name": "getHero",
      "outputs": [
        {
          "components": [
            {
              "name": "id",
              "type": "uint256"
            },
            {
              "name": "name",
              "type": "string"
            },
            {
              "name": "avatar",
              "type": "string"
            },
            {
              "name": "category",
              "type": "string"
            },
            {
              "name": "description",
              "type": "string"
            }
          ],
          "name": "hero",
          "type": "tuple"
        }
      ],
      "payable": false,
      "stateMutability": "view",
      "type": "function",
      "signature": "0x21d80111"
    },
    {
      "constant": true,
      "inputs": [
        {
          "name": "superheroID",
          "type": "uint256"
        }
      ],
      "name": "getSuperheroReviews",
      "outputs": [
        {
          "components": [
            {
              "name": "author",
              "type": "address"
            },
            {
              "name": "mark",
              "type": "uint256"
            },
            {
              "name": "text",
              "type": "string"
            }
          ],
          "name": "reviews",
          "type": "tuple[]"
        }
      ],
      "payable": false,
      "stateMutability": "view",
      "type": "function",
      "signature": "0x28a5fa32"
    }
  ],
  "bytecode": "0x608060405234801561001057600080fd5b5033600460006101000a81548173ffffffffffffffffffffffffffffffffffffffff021916908373ffffffffffffffffffffffffffffffffffffffff160217905550611c5e806100616000396000f3fe608060405260043610610082576000357c0100000000000000000000000000000000000000000000000000000000900463ffffffff168062cbf868146100875780630938b5a3146100c857806321d80111146100f157806328a5fa321461012e5780636362d27d1461016b5780638261cf2b14610194578063ce171013146101bf575b600080fd5b34801561009357600080fd5b506100ae60048036036100a991908101906114aa565b610200565b6040516100bf959493929190611a2d565b60405180910390f35b3480156100d457600080fd5b506100ef60048036036100ea91908101906114d3565b6104a5565b005b3480156100fd57600080fd5b50610118600480360361011391908101906114aa565b61068a565b604051610125919061199c565b60405180910390f35b34801561013a57600080fd5b50610155600480360361015091908101906114aa565b6109a1565b60405161016291906118f8565b60405180910390f35b34801561017757600080fd5b50610192600480360361018d91908101906114aa565b610b16565b005b3480156101a057600080fd5b506101a9610cd1565b6040516101b6919061191a565b60405180910390f35b3480156101cb57600080fd5b506101e660048036036101e191908101906113e7565b610fc3565b6040516101f79594939291906119be565b60405180910390f35b60008181548110151561020f57fe5b9060005260206000209060050201600091509050806000015490806001018054600181600116156101000203166002900480601f0160208091040260200160405190810160405280929190818152602001828054600181600116156101000203166002900480156102c15780601f10610296576101008083540402835291602001916102c1565b820191906000526020600020905b8154815290600101906020018083116102a457829003601f168201915b505050505090806002018054600181600116156101000203166002900480601f01602080910402602001604051908101604052809291908181526020018280546001816001161561010002031660029004801561035f5780601f106103345761010080835404028352916020019161035f565b820191906000526020600020905b81548152906001019060200180831161034257829003601f168201915b505050505090806003018054600181600116156101000203166002900480601f0160208091040260200160405190810160405280929190818152602001828054600181600116156101000203166002900480156103fd5780601f106103d2576101008083540402835291602001916103fd565b820191906000526020600020905b8154815290600101906020018083116103e057829003601f168201915b505050505090806004018054600181600116156101000203166002900480601f01602080910402602001604051908101604052809291908181526020018280546001816001161561010002031660029004801561049b5780601f106104705761010080835404028352916020019161049b565b820191906000526020600020905b81548152906001019060200180831161047e57829003601f168201915b5050505050905085565b600073ffffffffffffffffffffffffffffffffffffffff163373ffffffffffffffffffffffffffffffffffffffff1614151515610517576040517f08c379a000000000000000000000000000000000000000000000000000000000815260040161050e9061193c565b60405180910390fd5b60006105228461068a565b6000015114151515610569576040517f08c379a00000000000000000000000000000000000000000000000000000000081526004016105609061197c565b60405180910390fd5b600360008481526020019081526020016000206060604051908101604052803373ffffffffffffffffffffffffffffffffffffffff168152602001848152602001838152509080600181540180825580915050906001820390600052602060002090600302016000909192909190915060008201518160000160006101000a81548173ffffffffffffffffffffffffffffffffffffffff021916908373ffffffffffffffffffffffffffffffffffffffff1602179055506020820151816001015560408201518160020190805190602001906106469291906111de565b505050507f6c881ec046e8da311aeb0b911f4565ec6b4e5a996536e027169884f0d55d99e433838360405161067d939291906118ba565b60405180910390a1505050565b61069261125e565b60008090505b60055481101561099a57826000828154811015156106b257fe5b906000526020600020906005020160000154141561098d576000818154811015156106d957fe5b906000526020600020906005020160a0604051908101604052908160008201548152602001600182018054600181600116156101000203166002900480601f0160208091040260200160405190810160405280929190818152602001828054600181600116156101000203166002900480156107965780601f1061076b57610100808354040283529160200191610796565b820191906000526020600020905b81548152906001019060200180831161077957829003601f168201915b50505050508152602001600282018054600181600116156101000203166002900480601f0160208091040260200160405190810160405280929190818152602001828054600181600116156101000203166002900480156108385780601f1061080d57610100808354040283529160200191610838565b820191906000526020600020905b81548152906001019060200180831161081b57829003601f168201915b50505050508152602001600382018054600181600116156101000203166002900480601f0160208091040260200160405190810160405280929190818152602001828054600181600116156101000203166002900480156108da5780601f106108af576101008083540402835291602001916108da565b820191906000526020600020905b8154815290600101906020018083116108bd57829003601f168201915b50505050508152602001600482018054600181600116156101000203166002900480601f01602080910402602001604051908101604052809291908181526020018280546001816001161561010002031660029004801561097c5780601f106109515761010080835404028352916020019161097c565b820191906000526020600020905b81548152906001019060200180831161095f57829003601f168201915b50505050508152505091505061099c565b8080600101915050610698565b505b919050565b606060036000838152602001908152602001600020805480602002602001604051908101604052809291908181526020016000905b82821015610b0b5783829060005260206000209060030201606060405190810160405290816000820160009054906101000a900473ffffffffffffffffffffffffffffffffffffffff1673ffffffffffffffffffffffffffffffffffffffff1673ffffffffffffffffffffffffffffffffffffffff16815260200160018201548152602001600282018054600181600116156101000203166002900480601f016020809104026020016040519081016040528092919081815260200182805460018160011615610100020316600290048015610af35780601f10610ac857610100808354040283529160200191610af3565b820191906000526020600020905b815481529060010190602001808311610ad657829003601f168201915b505050505081525050815260200190600101906109d6565b505050509050919050565b600460009054906101000a900473ffffffffffffffffffffffffffffffffffffffff1673ffffffffffffffffffffffffffffffffffffffff163373ffffffffffffffffffffffffffffffffffffffff16141515610ba8576040517f08c379a0000000000000000000000000000000000000000000000000000000008152600401610b9f9061195c565b60405180910390fd5b60a060405190810160405280600081526020016020604051908101604052806000815250815260200160206040519081016040528060008152508152602001602060405190810160405280600081525081526020016020604051908101604052806000815250815250600082815481101515610c2057fe5b9060005260206000209060050201600082015181600001556020820151816001019080519060200190610c549291906111de565b506040820151816002019080519060200190610c719291906111de565b506060820151816003019080519060200190610c8e9291906111de565b506080820151816004019080519060200190610cab9291906111de565b50905050600360008281526020019081526020016000206000610cce919061128e565b50565b60606000805480602002602001604051908101604052809291908181526020016000905b82821015610fba578382906000526020600020906005020160a0604051908101604052908160008201548152602001600182018054600181600116156101000203166002900480601f016020809104026020016040519081016040528092919081815260200182805460018160011615610100020316600290048015610dbc5780601f10610d9157610100808354040283529160200191610dbc565b820191906000526020600020905b815481529060010190602001808311610d9f57829003601f168201915b50505050508152602001600282018054600181600116156101000203166002900480601f016020809104026020016040519081016040528092919081815260200182805460018160011615610100020316600290048015610e5e5780601f10610e3357610100808354040283529160200191610e5e565b820191906000526020600020905b815481529060010190602001808311610e4157829003601f168201915b50505050508152602001600382018054600181600116156101000203166002900480601f016020809104026020016040519081016040528092919081815260200182805460018160011615610100020316600290048015610f005780601f10610ed557610100808354040283529160200191610f00565b820191906000526020600020905b815481529060010190602001808311610ee357829003601f168201915b50505050508152602001600482018054600181600116156101000203166002900480601f016020809104026020016040519081016040528092919081815260200182805460018160011615610100020316600290048015610fa25780601f10610f7757610100808354040283529160200191610fa2565b820191906000526020600020905b815481529060010190602001808311610f8557829003601f168201915b50505050508152505081526020019060010190610cf5565b50505050905090565b6000606080606080600460009054906101000a900473ffffffffffffffffffffffffffffffffffffffff1673ffffffffffffffffffffffffffffffffffffffff163373ffffffffffffffffffffffffffffffffffffffff1614151561105d576040517f08c379a00000000000000000000000000000000000000000000000000000000081526004016110549061195c565b60405180910390fd5b60056000815480929190600101919050555061107761125e565b60a06040519081016040528060055481526020018b81526020018a8152602001898152602001888152509050600081908060018154018082558091505090600182039060005260206000209060050201600090919290919091506000820151816000015560208201518160010190805190602001906110f79291906111de565b5060408201518160020190805190602001906111149291906111de565b5060608201518160030190805190602001906111319291906111de565b50608082015181600401908051906020019061114e9291906111de565b505050507ff16ec575b16e22b7921b0efd40fba0527c920741baf433ce9ad70bd4a3127329600554826020015183604001518460600151856080015160405161119b959493929190611a2d565b60405180910390a1806000015181602001518260400151836060015184608001518393508292508191508090509550955095509550955050945094509450945094565b828054600181600116156101000203166002900490600052602060002090601f016020900481019282601f1061121f57805160ff191683800117855561124d565b8280016001018555821561124d579182015b8281111561124c578251825591602001919060010190611231565b5b50905061125a91906112b2565b5090565b60a06040519081016040528060008152602001606081526020016060815260200160608152602001606081525090565b50805460008255600302906000526020600020908101906112af91906112d7565b50565b6112d491905b808211156112d05760008160009055506001016112b8565b5090565b90565b61133291905b8082111561132e57600080820160006101000a81549073ffffffffffffffffffffffffffffffffffffffff021916905560018201600090556002820160006113259190611335565b506003016112dd565b5090565b90565b50805460018160011615610100020316600290046000825580601f1061135b575061137a565b601f01602090049060005260206000209081019061137991906112b2565b5b50565b600082601f830112151561139057600080fd5b81356113a361139e82611ac9565b611a9c565b915080825260208301602083018583830111156113bf57600080fd5b6113ca838284611bd1565b50505092915050565b60006113df8235611b91565b905092915050565b600080600080608085870312156113fd57600080fd5b600085013567ffffffffffffffff81111561141757600080fd5b6114238782880161137d565b945050602085013567ffffffffffffffff81111561144057600080fd5b61144c8782880161137d565b935050604085013567ffffffffffffffff81111561146957600080fd5b6114758782880161137d565b925050606085013567ffffffffffffffff81111561149257600080fd5b61149e8782880161137d565b91505092959194509250565b6000602082840312156114bc57600080fd5b60006114ca848285016113d3565b91505092915050565b6000806000606084860312156114e857600080fd5b60006114f6868287016113d3565b9350506020611507868287016113d3565b925050604084013567ffffffffffffffff81111561152457600080fd5b6115308682870161137d565b9150509250925092565b61154381611b9b565b82525050565b61155281611b55565b82525050565b600061156382611b0f565b8084526020840193508360208202850161157c85611af5565b60005b848110156115b5578383038852611597838351611745565b92506115a282611b3b565b915060208801975060018101905061157f565b508196508694505050505092915050565b60006115d182611b1a565b808452602084019350836020820285016115ea85611b02565b60005b84811015611623578383038852611605838351611820565b925061161082611b48565b91506020880197506001810190506115ed565b508196508694505050505092915050565b600061163f82611b30565b808452611653816020860160208601611be0565b61165c81611c13565b602085010191505092915050565b600061167582611b25565b808452611689816020860160208601611be0565b61169281611c13565b602085010191505092915050565b6000601782527f596f75206d7573742062652061207265616c20757365720000000000000000006020830152604082019050919050565b6000601682527f536f7272792c206f6e6c7920666f72206f776e657273000000000000000000006020830152604082019050919050565b6000601082527f4865726f206d75737420657869737473000000000000000000000000000000006020830152604082019050919050565b600060608301600083015161175d6000860182611549565b50602083015161177060208601826118ab565b5060408301518482036040860152611788828261166a565b9150508091505092915050565b600060a0830160008301516117ad60008601826118ab565b50602083015184820360208601526117c5828261166a565b915050604083015184820360408601526117df828261166a565b915050606083015184820360608601526117f9828261166a565b91505060808301518482036080860152611813828261166a565b9150508091505092915050565b600060a08301600083015161183860008601826118ab565b5060208301518482036020860152611850828261166a565b9150506040830151848203604086015261186a828261166a565b91505060608301518482036060860152611884828261166a565b9150506080830151848203608086015261189e828261166a565b9150508091505092915050565b6118b481611b87565b82525050565b60006060820190506118cf600083018661153a565b6118dc60208301856118ab565b81810360408301526118ee8184611634565b9050949350505050565b600060208201905081810360008301526119128184611558565b905092915050565b6000602082019050818103600083015261193481846115c6565b905092915050565b60006020820190508181036000830152611955816116a0565b9050919050565b60006020820190508181036000830152611975816116d7565b9050919050565b600060208201905081810360008301526119958161170e565b9050919050565b600060208201905081810360008301526119b68184611795565b905092915050565b600060a0820190506119d360008301886118ab565b81810360208301526119e58187611634565b905081810360408301526119f98186611634565b90508181036060830152611a0d8185611634565b90508181036080830152611a218184611634565b90509695505050505050565b600060a082019050611a4260008301886118ab565b8181036020830152611a54818761166a565b90508181036040830152611a68818661166a565b90508181036060830152611a7c818561166a565b90508181036080830152611a90818461166a565b90509695505050505050565b6000604051905081810181811067ffffffffffffffff82111715611abf57600080fd5b8060405250919050565b600067ffffffffffffffff821115611ae057600080fd5b601f19601f8301169050602081019050919050565b6000602082019050919050565b6000602082019050919050565b600081519050919050565b600081519050919050565b600081519050919050565b600081519050919050565b6000602082019050919050565b6000602082019050919050565b6000611b6082611b67565b9050919050565b600073ffffffffffffffffffffffffffffffffffffffff82169050919050565b6000819050919050565b6000819050919050565b6000611ba682611bad565b9050919050565b6000611bb882611bbf565b9050919050565b6000611bca82611b67565b9050919050565b82818337600083830152505050565b60005b83811015611bfe578082015181840152602081019050611be3565b83811115611c0d576000848401525b50505050565b6000601f19601f830116905091905056fea265627a7a723058200cf4a64ddcdf551143f5fe108443105ebe12b94567178ac29a9f19178bf5daf96c6578706572696d656e74616cf50037",
  "source": "pragma solidity ^0.5.0;\npragma experimental ABIEncoderV2;\n\ncontract Superheroes {\n  Superhero[] public superheroes;\n  mapping (uint => uint) superheroesVotes;\n  mapping (address => uint[]) userVotes;\n  mapping (uint => Review[]) superheroesReviews;\n\n  address private owner;\n\n  modifier onlyOwner() {\n    require(msg.sender == owner, \"Sorry, only for owners\");\n    _;\n  }\n\n  constructor() public {\n    owner = msg.sender;\n  }\n\n  uint superheroCount;\n\n  struct Review {\n    address author;\n    uint mark;\n    string text;\n  }\n\n  struct Superhero {\n    uint id;\n    string name;\n    string avatar;\n    string category;\n    string description;\n  }\n\n  event NewReview(address author, uint mark, string text);\n  event NewSuperhero(uint id, string  name, string avatar, string category, string description);\n\n  function review(uint superHeroID, uint mark, string memory reviewText) public {\n    require(msg.sender != address(0), \"You must be a real user\");\n    require(getHero(superHeroID).id!=0, \"Hero must exists\");\n\n    superheroesReviews[superHeroID].push(Review(msg.sender, mark, reviewText));\n    emit NewReview(msg.sender, mark, reviewText);\n  }\n\n  function addSuperhero(string memory name, string memory avatar, string memory category, string memory description) public onlyOwner returns (uint heroID, string memory heroName, string memory heroAvatar, string memory heroCategory, string memory heroDescription) {\n    superheroCount++;\n    Superhero memory newHero = Superhero(superheroCount, name, avatar, category, description);\n    superheroes.push(newHero);\n    emit NewSuperhero(superheroCount, newHero.name, newHero.avatar, newHero.category, newHero.description);\n    return (newHero.id, newHero.name, newHero.avatar, newHero.category, newHero.description);\n  }\n\n  function removeSuperHero(uint heroID) public onlyOwner {\n    superheroes[heroID] = Superhero(0, '', '', '', '');\n    delete superheroesReviews[heroID];\n  }\n\n  function string_tobytes( string memory s) pure internal returns (bytes memory result){\n    bytes memory b3 = bytes(s);\n    return b3;\n  }\n\n  function getSuperHeroes() public view returns (Superhero[] memory result ) {\n    return superheroes;\n  }\n\n  function getHero(uint id) public view returns(Superhero memory hero) {\n    for(uint i = 0; i<superheroCount;i++) {\n      if(superheroes[i].id==id) {\n        return superheroes[i];\n      }\n    }\n  }\n\n  function getSuperheroReviews(uint superheroID) public view returns(Review[] memory reviews) {\n    return superheroesReviews[superheroID];\n  }\n\n\n}\n",
  "sourcePath": "/Users/dzharkov/TourOfMastery/blockchain/ethereum/superheroes/contracts/Superheroes.sol",
  "compiler": {
    "name": "solc",
    "version": "0.5.0+commit.1d4f565a.Emscripten.clang"
  },
  "schemaVersion": "3.0.0",
  "updatedAt": "2019-06-03T13:31:58.835Z",
  "devdoc": {
    "methods": {}
  },
  "userdoc": {
    "methods": {}
  }
}