{
  "contractName": "Superheroes",
  "abi": [
    {
      "constant": true,
      "inputs": [
        {
          "name": "",
          "type": "uint256"
        }
      ],
      "name": "superheroes",
      "outputs": [
        {
          "name": "id",
          "type": "uint256"
        },
        {
          "name": "name",
          "type": "string"
        },
        {
          "name": "avatar",
          "type": "string"
        },
        {
          "name": "category",
          "type": "string"
        },
        {
          "name": "description",
          "type": "string"
        }
      ],
      "payable": false,
      "stateMutability": "view",
      "type": "function",
      "signature": "0x00cbf868"
    },
    {
      "constant": false,
      "inputs": [
        {
          "name": "superHeroID",
          "type": "uint256"
        }
      ],
      "name": "vote",
      "outputs": [],
      "payable": false,
      "stateMutability": "nonpayable",
      "type": "function",
      "signature": "0x0121b93f"
    },
    {
      "constant": false,
      "inputs": [
        {
          "name": "name",
          "type": "string"
        },
        {
          "name": "avatar",
          "type": "string"
        },
        {
          "name": "category",
          "type": "string"
        },
        {
          "name": "description",
          "type": "string"
        }
      ],
      "name": "addSuperhero",
      "outputs": [
        {
          "name": "heroID",
          "type": "uint256"
        },
        {
          "name": "heroName",
          "type": "string"
        },
        {
          "name": "heroAvatar",
          "type": "string"
        },
        {
          "name": "heroCategory",
          "type": "string"
        },
        {
          "name": "heroDescription",
          "type": "string"
        }
      ],
      "payable": false,
      "stateMutability": "nonpayable",
      "type": "function",
      "signature": "0xce171013"
    },
    {
      "constant": true,
      "inputs": [],
      "name": "getSuperHeroes",
      "outputs": [
        {
          "components": [
            {
              "name": "id",
              "type": "uint256"
            },
            {
              "name": "name",
              "type": "string"
            },
            {
              "name": "avatar",
              "type": "string"
            },
            {
              "name": "category",
              "type": "string"
            },
            {
              "name": "description",
              "type": "string"
            }
          ],
          "name": "result",
          "type": "tuple[]"
        }
      ],
      "payable": false,
      "stateMutability": "view",
      "type": "function",
      "signature": "0x8261cf2b"
    },
    {
      "constant": true,
      "inputs": [
        {
          "name": "id",
          "type": "uint256"
        }
      ],
      "name": "getHero",
      "outputs": [
        {
          "components": [
            {
              "name": "id",
              "type": "uint256"
            },
            {
              "name": "name",
              "type": "string"
            },
            {
              "name": "avatar",
              "type": "string"
            },
            {
              "name": "category",
              "type": "string"
            },
            {
              "name": "description",
              "type": "string"
            }
          ],
          "name": "hero",
          "type": "tuple"
        }
      ],
      "payable": false,
      "stateMutability": "view",
      "type": "function",
      "signature": "0x21d80111"
    }
  ],
  "bytecode": "0x608060405234801561001057600080fd5b50611343806100206000396000f3fe60806040526004361061006c576000357c0100000000000000000000000000000000000000000000000000000000900463ffffffff168062cbf868146100715780630121b93f146100b257806321d80111146100db5780638261cf2b14610118578063ce17101314610143575b600080fd5b34801561007d57600080fd5b5061009860048036036100939190810190610e6d565b610184565b6040516100a995949392919061119f565b60405180910390f35b3480156100be57600080fd5b506100d960048036036100d49190810190610e6d565b610429565b005b3480156100e757600080fd5b5061010260048036036100fd9190810190610e6d565b61052a565b60405161010f919061110e565b60405180910390f35b34801561012457600080fd5b5061012d610841565b60405161013a91906110cc565b60405180910390f35b34801561014f57600080fd5b5061016a60048036036101659190810190610daa565b610b33565b60405161017b959493929190611130565b60405180910390f35b60008181548110151561019357fe5b9060005260206000209060050201600091509050806000015490806001018054600181600116156101000203166002900480601f0160208091040260200160405190810160405280929190818152602001828054600181600116156101000203166002900480156102455780601f1061021a57610100808354040283529160200191610245565b820191906000526020600020905b81548152906001019060200180831161022857829003601f168201915b505050505090806002018054600181600116156101000203166002900480601f0160208091040260200160405190810160405280929190818152602001828054600181600116156101000203166002900480156102e35780601f106102b8576101008083540402835291602001916102e3565b820191906000526020600020905b8154815290600101906020018083116102c657829003601f168201915b505050505090806003018054600181600116156101000203166002900480601f0160208091040260200160405190810160405280929190818152602001828054600181600116156101000203166002900480156103815780601f1061035657610100808354040283529160200191610381565b820191906000526020600020905b81548152906001019060200180831161036457829003601f168201915b505050505090806004018054600181600116156101000203166002900480601f01602080910402602001604051908101604052809291908181526020018280546001816001161561010002031660029004801561041f5780601f106103f45761010080835404028352916020019161041f565b820191906000526020600020905b81548152906001019060200180831161040257829003601f168201915b5050505050905085565b600073ffffffffffffffffffffffffffffffffffffffff163373ffffffffffffffffffffffffffffffffffffffff161415151561049b576040517f08c379a0000000000000000000000000000000000000000000000000000000008152600401610492906110ee565b60405180910390fd5b6001600082815260200190815260200160002060008154809291906001019190505550600260003373ffffffffffffffffffffffffffffffffffffffff1673ffffffffffffffffffffffffffffffffffffffff16815260200190815260200160002081908060018154018082558091505090600182039060005260206000200160009091929091909150555050565b610532610c6b565b60008090505b60035481101561083a578260008281548110151561055257fe5b906000526020600020906005020160000154141561082d5760008181548110151561057957fe5b906000526020600020906005020160a0604051908101604052908160008201548152602001600182018054600181600116156101000203166002900480601f0160208091040260200160405190810160405280929190818152602001828054600181600116156101000203166002900480156106365780601f1061060b57610100808354040283529160200191610636565b820191906000526020600020905b81548152906001019060200180831161061957829003601f168201915b50505050508152602001600282018054600181600116156101000203166002900480601f0160208091040260200160405190810160405280929190818152602001828054600181600116156101000203166002900480156106d85780601f106106ad576101008083540402835291602001916106d8565b820191906000526020600020905b8154815290600101906020018083116106bb57829003601f168201915b50505050508152602001600382018054600181600116156101000203166002900480601f01602080910402602001604051908101604052809291908181526020018280546001816001161561010002031660029004801561077a5780601f1061074f5761010080835404028352916020019161077a565b820191906000526020600020905b81548152906001019060200180831161075d57829003601f168201915b50505050508152602001600482018054600181600116156101000203166002900480601f01602080910402602001604051908101604052809291908181526020018280546001816001161561010002031660029004801561081c5780601f106107f15761010080835404028352916020019161081c565b820191906000526020600020905b8154815290600101906020018083116107ff57829003601f168201915b50505050508152505091505061083c565b8080600101915050610538565b505b919050565b60606000805480602002602001604051908101604052809291908181526020016000905b82821015610b2a578382906000526020600020906005020160a0604051908101604052908160008201548152602001600182018054600181600116156101000203166002900480601f01602080910402602001604051908101604052809291908181526020018280546001816001161561010002031660029004801561092c5780601f106109015761010080835404028352916020019161092c565b820191906000526020600020905b81548152906001019060200180831161090f57829003601f168201915b50505050508152602001600282018054600181600116156101000203166002900480601f0160208091040260200160405190810160405280929190818152602001828054600181600116156101000203166002900480156109ce5780601f106109a3576101008083540402835291602001916109ce565b820191906000526020600020905b8154815290600101906020018083116109b157829003601f168201915b50505050508152602001600382018054600181600116156101000203166002900480601f016020809104026020016040519081016040528092919081815260200182805460018160011615610100020316600290048015610a705780601f10610a4557610100808354040283529160200191610a70565b820191906000526020600020905b815481529060010190602001808311610a5357829003601f168201915b50505050508152602001600482018054600181600116156101000203166002900480601f016020809104026020016040519081016040528092919081815260200182805460018160011615610100020316600290048015610b125780601f10610ae757610100808354040283529160200191610b12565b820191906000526020600020905b815481529060010190602001808311610af557829003601f168201915b50505050508152505081526020019060010190610865565b50505050905090565b6000606080606080600360008154809291906001019190505550610b55610c6b565b60a06040519081016040528060035481526020018b81526020018a815260200189815260200188815250905060008190806001815401808255809150509060018203906000526020600020906005020160009091929091909150600082015181600001556020820151816001019080519060200190610bd5929190610c9b565b506040820151816002019080519060200190610bf2929190610c9b565b506060820151816003019080519060200190610c0f929190610c9b565b506080820151816004019080519060200190610c2c929190610c9b565b50505050806000015181602001518260400151836060015184608001518393508292508191508090509550955095509550955050945094509450945094565b60a06040519081016040528060008152602001606081526020016060815260200160608152602001606081525090565b828054600181600116156101000203166002900490600052602060002090601f016020900481019282601f10610cdc57805160ff1916838001178555610d0a565b82800160010185558215610d0a579182015b82811115610d09578251825591602001919060010190610cee565b5b509050610d179190610d1b565b5090565b610d3d91905b80821115610d39576000816000905550600101610d21565b5090565b90565b600082601f8301121515610d5357600080fd5b8135610d66610d618261123b565b61120e565b91508082526020830160208301858383011115610d8257600080fd5b610d8d8382846112b6565b50505092915050565b6000610da282356112ac565b905092915050565b60008060008060808587031215610dc057600080fd5b600085013567ffffffffffffffff811115610dda57600080fd5b610de687828801610d40565b945050602085013567ffffffffffffffff811115610e0357600080fd5b610e0f87828801610d40565b935050604085013567ffffffffffffffff811115610e2c57600080fd5b610e3887828801610d40565b925050606085013567ffffffffffffffff811115610e5557600080fd5b610e6187828801610d40565b91505092959194509250565b600060208284031215610e7f57600080fd5b6000610e8d84828501610d96565b91505092915050565b6000610ea182611274565b80845260208401935083602082028501610eba85611267565b60005b84811015610ef3578383038852610ed5838351611032565b9250610ee082611295565b9150602088019750600181019050610ebd565b508196508694505050505092915050565b6000610f0f8261128a565b808452610f238160208601602086016112c5565b610f2c816112f8565b602085010191505092915050565b6000610f458261127f565b808452610f598160208601602086016112c5565b610f62816112f8565b602085010191505092915050565b6000601782527f596f75206d7573742062652061207265616c20757365720000000000000000006020830152604082019050919050565b600060a083016000830151610fbf60008601826110bd565b5060208301518482036020860152610fd78282610f3a565b91505060408301518482036040860152610ff18282610f3a565b9150506060830151848203606086015261100b8282610f3a565b915050608083015184820360808601526110258282610f3a565b9150508091505092915050565b600060a08301600083015161104a60008601826110bd565b50602083015184820360208601526110628282610f3a565b9150506040830151848203604086015261107c8282610f3a565b915050606083015184820360608601526110968282610f3a565b915050608083015184820360808601526110b08282610f3a565b9150508091505092915050565b6110c6816112a2565b82525050565b600060208201905081810360008301526110e68184610e96565b905092915050565b6000602082019050818103600083015261110781610f70565b9050919050565b600060208201905081810360008301526111288184610fa7565b905092915050565b600060a08201905061114560008301886110bd565b81810360208301526111578187610f04565b9050818103604083015261116b8186610f04565b9050818103606083015261117f8185610f04565b905081810360808301526111938184610f04565b90509695505050505050565b600060a0820190506111b460008301886110bd565b81810360208301526111c68187610f3a565b905081810360408301526111da8186610f3a565b905081810360608301526111ee8185610f3a565b905081810360808301526112028184610f3a565b90509695505050505050565b6000604051905081810181811067ffffffffffffffff8211171561123157600080fd5b8060405250919050565b600067ffffffffffffffff82111561125257600080fd5b601f19601f8301169050602081019050919050565b6000602082019050919050565b600081519050919050565b600081519050919050565b600081519050919050565b6000602082019050919050565b6000819050919050565b6000819050919050565b82818337600083830152505050565b60005b838110156112e35780820151818401526020810190506112c8565b838111156112f2576000848401525b50505050565b6000601f19601f830116905091905056fea265627a7a72305820f2b78611881d9356f0ea43adb7bbb57079d289a80668d73d22e058238f0dbe3f6c6578706572696d656e74616cf50037",
  "source": "pragma solidity ^0.5.0;\npragma experimental ABIEncoderV2;\n\ncontract Superheroes {\n  Superhero[] public superheroes;\n  mapping (uint => uint) superheroesVotes;\n  mapping (address => uint[]) userVotes;\n  uint superheroCount;\n\n  struct Superhero {\n    uint id;\n    string name;\n    string avatar;\n    string category;\n    string description;\n  }\n\n  function vote(uint superHeroID) public {\n    require(msg.sender != address(0), \"You must be a real user\");\n    superheroesVotes[superHeroID]++;\n    userVotes[msg.sender].push(superHeroID);\n  }\n\n  function addSuperhero(string memory name, string memory avatar, string memory category, string memory description) public returns (uint heroID, string memory heroName, string memory heroAvatar, string memory heroCategory, string memory heroDescription) {\n    superheroCount++;\n    Superhero memory newHero = Superhero(superheroCount, name, avatar, category, description);\n    superheroes.push(newHero);\n    return (newHero.id, newHero.name, newHero.avatar, newHero.category, newHero.description);\n  }\n\n  function string_tobytes( string memory s) pure internal returns (bytes memory result){\n    bytes memory b3 = bytes(s);\n    return b3;\n  }\n\n  function getSuperHeroes() public view returns (Superhero[] memory result ) {\n    return superheroes;\n  }\n\n  function getHero(uint id) public view returns(Superhero memory hero) {\n    for(uint i = 0; i<superheroCount;i++) {\n      if(superheroes[i].id==id) {\n        return superheroes[i];\n      }\n    }\n  }\n\n}\n",
  "sourcePath": "/Users/dzharkov/TourOfMastery/blockchain/ethereum/superheroes/contracts/Superheroes.sol",
  "compiler": {
    "name": "solc",
    "version": "0.5.0+commit.1d4f565a.Emscripten.clang"
  },
  "schemaVersion": "3.0.0",
  "updatedAt": "2019-04-23T15:32:40.368Z",
  "devdoc": {
    "methods": {}
  },
  "userdoc": {
    "methods": {}
  }
}