{
  "contractName": "Superheroes",
  "abi": [
    {
      "constant": true,
      "inputs": [
        {
          "name": "",
          "type": "uint256"
        }
      ],
      "name": "superheroes",
      "outputs": [
        {
          "name": "id",
          "type": "uint256"
        },
        {
          "name": "name",
          "type": "string"
        },
        {
          "name": "avatar",
          "type": "string"
        },
        {
          "name": "category",
          "type": "string"
        },
        {
          "name": "description",
          "type": "string"
        }
      ],
      "payable": false,
      "stateMutability": "view",
      "type": "function",
      "signature": "0x00cbf868"
    },
    {
      "anonymous": false,
      "inputs": [
        {
          "indexed": false,
          "name": "author",
          "type": "address"
        },
        {
          "indexed": false,
          "name": "mark",
          "type": "uint256"
        },
        {
          "indexed": false,
          "name": "text",
          "type": "string"
        }
      ],
      "name": "NewReview",
      "type": "event",
      "signature": "0x6c881ec046e8da311aeb0b911f4565ec6b4e5a996536e027169884f0d55d99e4"
    },
    {
      "anonymous": false,
      "inputs": [
        {
          "indexed": false,
          "name": "id",
          "type": "uint256"
        },
        {
          "indexed": false,
          "name": "name",
          "type": "string"
        },
        {
          "indexed": false,
          "name": "avatar",
          "type": "string"
        },
        {
          "indexed": false,
          "name": "category",
          "type": "string"
        },
        {
          "indexed": false,
          "name": "description",
          "type": "string"
        }
      ],
      "name": "NewSuperhero",
      "type": "event",
      "signature": "0xf16ec575b16e22b7921b0efd40fba0527c920741baf433ce9ad70bd4a3127329"
    },
    {
      "constant": false,
      "inputs": [
        {
          "name": "superHeroID",
          "type": "uint256"
        },
        {
          "name": "mark",
          "type": "uint256"
        },
        {
          "name": "reviewText",
          "type": "string"
        }
      ],
      "name": "review",
      "outputs": [],
      "payable": false,
      "stateMutability": "nonpayable",
      "type": "function",
      "signature": "0x0938b5a3"
    },
    {
      "constant": false,
      "inputs": [
        {
          "name": "name",
          "type": "string"
        },
        {
          "name": "avatar",
          "type": "string"
        },
        {
          "name": "category",
          "type": "string"
        },
        {
          "name": "description",
          "type": "string"
        }
      ],
      "name": "addSuperhero",
      "outputs": [
        {
          "name": "heroID",
          "type": "uint256"
        },
        {
          "name": "heroName",
          "type": "string"
        },
        {
          "name": "heroAvatar",
          "type": "string"
        },
        {
          "name": "heroCategory",
          "type": "string"
        },
        {
          "name": "heroDescription",
          "type": "string"
        }
      ],
      "payable": false,
      "stateMutability": "nonpayable",
      "type": "function",
      "signature": "0xce171013"
    },
    {
      "constant": true,
      "inputs": [],
      "name": "getSuperHeroes",
      "outputs": [
        {
          "components": [
            {
              "name": "id",
              "type": "uint256"
            },
            {
              "name": "name",
              "type": "string"
            },
            {
              "name": "avatar",
              "type": "string"
            },
            {
              "name": "category",
              "type": "string"
            },
            {
              "name": "description",
              "type": "string"
            }
          ],
          "name": "result",
          "type": "tuple[]"
        }
      ],
      "payable": false,
      "stateMutability": "view",
      "type": "function",
      "signature": "0x8261cf2b"
    },
    {
      "constant": true,
      "inputs": [
        {
          "name": "id",
          "type": "uint256"
        }
      ],
      "name": "getHero",
      "outputs": [
        {
          "components": [
            {
              "name": "id",
              "type": "uint256"
            },
            {
              "name": "name",
              "type": "string"
            },
            {
              "name": "avatar",
              "type": "string"
            },
            {
              "name": "category",
              "type": "string"
            },
            {
              "name": "description",
              "type": "string"
            }
          ],
          "name": "hero",
          "type": "tuple"
        }
      ],
      "payable": false,
      "stateMutability": "view",
      "type": "function",
      "signature": "0x21d80111"
    },
    {
      "constant": true,
      "inputs": [
        {
          "name": "superheroID",
          "type": "uint256"
        }
      ],
      "name": "getSuperheroReviews",
      "outputs": [
        {
          "components": [
            {
              "name": "author",
              "type": "address"
            },
            {
              "name": "mark",
              "type": "uint256"
            },
            {
              "name": "text",
              "type": "string"
            }
          ],
          "name": "reviews",
          "type": "tuple[]"
        }
      ],
      "payable": false,
      "stateMutability": "view",
      "type": "function",
      "signature": "0x28a5fa32"
    }
  ],
  "bytecode": "0x608060405234801561001057600080fd5b506118bc806100206000396000f3fe608060405260043610610077576000357c0100000000000000000000000000000000000000000000000000000000900463ffffffff168062cbf8681461007c5780630938b5a3146100bd57806321d80111146100e657806328a5fa32146101235780638261cf2b14610160578063ce1710131461018b575b600080fd5b34801561008857600080fd5b506100a3600480360361009e919081019061115f565b6101cc565b6040516100b495949392919061168b565b60405180910390f35b3480156100c957600080fd5b506100e460048036036100df9190810190611188565b610471565b005b3480156100f257600080fd5b5061010d6004803603610108919081019061115f565b610656565b60405161011a91906115fa565b60405180910390f35b34801561012f57600080fd5b5061014a6004803603610145919081019061115f565b61096d565b6040516101579190611576565b60405180910390f35b34801561016c57600080fd5b50610175610ae2565b6040516101829190611598565b60405180910390f35b34801561019757600080fd5b506101b260048036036101ad919081019061109c565b610dd4565b6040516101c395949392919061161c565b60405180910390f35b6000818154811015156101db57fe5b9060005260206000209060050201600091509050806000015490806001018054600181600116156101000203166002900480601f01602080910402602001604051908101604052809291908181526020018280546001816001161561010002031660029004801561028d5780601f106102625761010080835404028352916020019161028d565b820191906000526020600020905b81548152906001019060200180831161027057829003601f168201915b505050505090806002018054600181600116156101000203166002900480601f01602080910402602001604051908101604052809291908181526020018280546001816001161561010002031660029004801561032b5780601f106103005761010080835404028352916020019161032b565b820191906000526020600020905b81548152906001019060200180831161030e57829003601f168201915b505050505090806003018054600181600116156101000203166002900480601f0160208091040260200160405190810160405280929190818152602001828054600181600116156101000203166002900480156103c95780601f1061039e576101008083540402835291602001916103c9565b820191906000526020600020905b8154815290600101906020018083116103ac57829003601f168201915b505050505090806004018054600181600116156101000203166002900480601f0160208091040260200160405190810160405280929190818152602001828054600181600116156101000203166002900480156104675780601f1061043c57610100808354040283529160200191610467565b820191906000526020600020905b81548152906001019060200180831161044a57829003601f168201915b5050505050905085565b600073ffffffffffffffffffffffffffffffffffffffff163373ffffffffffffffffffffffffffffffffffffffff16141515156104e3576040517f08c379a00000000000000000000000000000000000000000000000000000000081526004016104da906115ba565b60405180910390fd5b60006104ee84610656565b6000015114151515610535576040517f08c379a000000000000000000000000000000000000000000000000000000000815260040161052c906115da565b60405180910390fd5b600360008481526020019081526020016000206060604051908101604052803373ffffffffffffffffffffffffffffffffffffffff168152602001848152602001838152509080600181540180825580915050906001820390600052602060002090600302016000909192909190915060008201518160000160006101000a81548173ffffffffffffffffffffffffffffffffffffffff021916908373ffffffffffffffffffffffffffffffffffffffff160217905550602082015181600101556040820151816002019080519060200190610612929190610f5d565b505050507f6c881ec046e8da311aeb0b911f4565ec6b4e5a996536e027169884f0d55d99e433838360405161064993929190611538565b60405180910390a1505050565b61065e610fdd565b60008090505b600454811015610966578260008281548110151561067e57fe5b9060005260206000209060050201600001541415610959576000818154811015156106a557fe5b906000526020600020906005020160a0604051908101604052908160008201548152602001600182018054600181600116156101000203166002900480601f0160208091040260200160405190810160405280929190818152602001828054600181600116156101000203166002900480156107625780601f1061073757610100808354040283529160200191610762565b820191906000526020600020905b81548152906001019060200180831161074557829003601f168201915b50505050508152602001600282018054600181600116156101000203166002900480601f0160208091040260200160405190810160405280929190818152602001828054600181600116156101000203166002900480156108045780601f106107d957610100808354040283529160200191610804565b820191906000526020600020905b8154815290600101906020018083116107e757829003601f168201915b50505050508152602001600382018054600181600116156101000203166002900480601f0160208091040260200160405190810160405280929190818152602001828054600181600116156101000203166002900480156108a65780601f1061087b576101008083540402835291602001916108a6565b820191906000526020600020905b81548152906001019060200180831161088957829003601f168201915b50505050508152602001600482018054600181600116156101000203166002900480601f0160208091040260200160405190810160405280929190818152602001828054600181600116156101000203166002900480156109485780601f1061091d57610100808354040283529160200191610948565b820191906000526020600020905b81548152906001019060200180831161092b57829003601f168201915b505050505081525050915050610968565b8080600101915050610664565b505b919050565b606060036000838152602001908152602001600020805480602002602001604051908101604052809291908181526020016000905b82821015610ad75783829060005260206000209060030201606060405190810160405290816000820160009054906101000a900473ffffffffffffffffffffffffffffffffffffffff1673ffffffffffffffffffffffffffffffffffffffff1673ffffffffffffffffffffffffffffffffffffffff16815260200160018201548152602001600282018054600181600116156101000203166002900480601f016020809104026020016040519081016040528092919081815260200182805460018160011615610100020316600290048015610abf5780601f10610a9457610100808354040283529160200191610abf565b820191906000526020600020905b815481529060010190602001808311610aa257829003601f168201915b505050505081525050815260200190600101906109a2565b505050509050919050565b60606000805480602002602001604051908101604052809291908181526020016000905b82821015610dcb578382906000526020600020906005020160a0604051908101604052908160008201548152602001600182018054600181600116156101000203166002900480601f016020809104026020016040519081016040528092919081815260200182805460018160011615610100020316600290048015610bcd5780601f10610ba257610100808354040283529160200191610bcd565b820191906000526020600020905b815481529060010190602001808311610bb057829003601f168201915b50505050508152602001600282018054600181600116156101000203166002900480601f016020809104026020016040519081016040528092919081815260200182805460018160011615610100020316600290048015610c6f5780601f10610c4457610100808354040283529160200191610c6f565b820191906000526020600020905b815481529060010190602001808311610c5257829003601f168201915b50505050508152602001600382018054600181600116156101000203166002900480601f016020809104026020016040519081016040528092919081815260200182805460018160011615610100020316600290048015610d115780601f10610ce657610100808354040283529160200191610d11565b820191906000526020600020905b815481529060010190602001808311610cf457829003601f168201915b50505050508152602001600482018054600181600116156101000203166002900480601f016020809104026020016040519081016040528092919081815260200182805460018160011615610100020316600290048015610db35780601f10610d8857610100808354040283529160200191610db3565b820191906000526020600020905b815481529060010190602001808311610d9657829003601f168201915b50505050508152505081526020019060010190610b06565b50505050905090565b6000606080606080600460008154809291906001019190505550610df6610fdd565b60a06040519081016040528060045481526020018b81526020018a815260200189815260200188815250905060008190806001815401808255809150509060018203906000526020600020906005020160009091929091909150600082015181600001556020820151816001019080519060200190610e76929190610f5d565b506040820151816002019080519060200190610e93929190610f5d565b506060820151816003019080519060200190610eb0929190610f5d565b506080820151816004019080519060200190610ecd929190610f5d565b505050507ff16ec575b16e22b7921b0efd40fba0527c920741baf433ce9ad70bd4a31273296004548260200151836040015184606001518560800151604051610f1a95949392919061168b565b60405180910390a1806000015181602001518260400151836060015184608001518393508292508191508090509550955095509550955050945094509450945094565b828054600181600116156101000203166002900490600052602060002090601f016020900481019282601f10610f9e57805160ff1916838001178555610fcc565b82800160010185558215610fcc579182015b82811115610fcb578251825591602001919060010190610fb0565b5b509050610fd9919061100d565b5090565b60a06040519081016040528060008152602001606081526020016060815260200160608152602001606081525090565b61102f91905b8082111561102b576000816000905550600101611013565b5090565b90565b600082601f830112151561104557600080fd5b813561105861105382611727565b6116fa565b9150808252602083016020830185838301111561107457600080fd5b61107f83828461182f565b50505092915050565b600061109482356117ef565b905092915050565b600080600080608085870312156110b257600080fd5b600085013567ffffffffffffffff8111156110cc57600080fd5b6110d887828801611032565b945050602085013567ffffffffffffffff8111156110f557600080fd5b61110187828801611032565b935050604085013567ffffffffffffffff81111561111e57600080fd5b61112a87828801611032565b925050606085013567ffffffffffffffff81111561114757600080fd5b61115387828801611032565b91505092959194509250565b60006020828403121561117157600080fd5b600061117f84828501611088565b91505092915050565b60008060006060848603121561119d57600080fd5b60006111ab86828701611088565b93505060206111bc86828701611088565b925050604084013567ffffffffffffffff8111156111d957600080fd5b6111e586828701611032565b9150509250925092565b6111f8816117f9565b82525050565b611207816117b3565b82525050565b60006112188261176d565b8084526020840193508360208202850161123185611753565b60005b8481101561126a57838303885261124c8383516113c3565b925061125782611799565b9150602088019750600181019050611234565b508196508694505050505092915050565b600061128682611778565b8084526020840193508360208202850161129f85611760565b60005b848110156112d85783830388526112ba83835161149e565b92506112c5826117a6565b91506020880197506001810190506112a2565b508196508694505050505092915050565b60006112f48261178e565b80845261130881602086016020860161183e565b61131181611871565b602085010191505092915050565b600061132a82611783565b80845261133e81602086016020860161183e565b61134781611871565b602085010191505092915050565b6000601782527f596f75206d7573742062652061207265616c20757365720000000000000000006020830152604082019050919050565b6000601082527f4865726f206d75737420657869737473000000000000000000000000000000006020830152604082019050919050565b60006060830160008301516113db60008601826111fe565b5060208301516113ee6020860182611529565b5060408301518482036040860152611406828261131f565b9150508091505092915050565b600060a08301600083015161142b6000860182611529565b5060208301518482036020860152611443828261131f565b9150506040830151848203604086015261145d828261131f565b91505060608301518482036060860152611477828261131f565b91505060808301518482036080860152611491828261131f565b9150508091505092915050565b600060a0830160008301516114b66000860182611529565b50602083015184820360208601526114ce828261131f565b915050604083015184820360408601526114e8828261131f565b91505060608301518482036060860152611502828261131f565b9150506080830151848203608086015261151c828261131f565b9150508091505092915050565b611532816117e5565b82525050565b600060608201905061154d60008301866111ef565b61155a6020830185611529565b818103604083015261156c81846112e9565b9050949350505050565b60006020820190508181036000830152611590818461120d565b905092915050565b600060208201905081810360008301526115b2818461127b565b905092915050565b600060208201905081810360008301526115d381611355565b9050919050565b600060208201905081810360008301526115f38161138c565b9050919050565b600060208201905081810360008301526116148184611413565b905092915050565b600060a0820190506116316000830188611529565b818103602083015261164381876112e9565b9050818103604083015261165781866112e9565b9050818103606083015261166b81856112e9565b9050818103608083015261167f81846112e9565b90509695505050505050565b600060a0820190506116a06000830188611529565b81810360208301526116b2818761131f565b905081810360408301526116c6818661131f565b905081810360608301526116da818561131f565b905081810360808301526116ee818461131f565b90509695505050505050565b6000604051905081810181811067ffffffffffffffff8211171561171d57600080fd5b8060405250919050565b600067ffffffffffffffff82111561173e57600080fd5b601f19601f8301169050602081019050919050565b6000602082019050919050565b6000602082019050919050565b600081519050919050565b600081519050919050565b600081519050919050565b600081519050919050565b6000602082019050919050565b6000602082019050919050565b60006117be826117c5565b9050919050565b600073ffffffffffffffffffffffffffffffffffffffff82169050919050565b6000819050919050565b6000819050919050565b60006118048261180b565b9050919050565b60006118168261181d565b9050919050565b6000611828826117c5565b9050919050565b82818337600083830152505050565b60005b8381101561185c578082015181840152602081019050611841565b8381111561186b576000848401525b50505050565b6000601f19601f830116905091905056fea265627a7a723058203f41bae6cd2c88d166045ca92f723e1381388d172af041cd1db0f3a56dedf3486c6578706572696d656e74616cf50037",
  "source": "pragma solidity ^0.5.0;\npragma experimental ABIEncoderV2;\n\ncontract Superheroes {\n  Superhero[] public superheroes;\n  mapping (uint => uint) superheroesVotes;\n  mapping (address => uint[]) userVotes;\n  mapping (uint => Review[]) superheroesReviews;\n\n  uint superheroCount;\n\n  struct Review {\n    address author;\n    uint mark;\n    string text;\n  }\n\n  struct Superhero {\n    uint id;\n    string name;\n    string avatar;\n    string category;\n    string description;\n  }\n\n  event NewReview(address author, uint mark, string text);\n  event NewSuperhero(uint id, string  name, string avatar, string category, string description);\n\n  function review(uint superHeroID, uint mark, string memory reviewText) public {\n    require(msg.sender != address(0), \"You must be a real user\");\n    require(getHero(superHeroID).id!=0, \"Hero must exists\");\n\n    superheroesReviews[superHeroID].push(Review(msg.sender, mark, reviewText));\n    emit NewReview(msg.sender, mark, reviewText);\n  }\n\n  function addSuperhero(string memory name, string memory avatar, string memory category, string memory description) public returns (uint heroID, string memory heroName, string memory heroAvatar, string memory heroCategory, string memory heroDescription) {\n    superheroCount++;\n    Superhero memory newHero = Superhero(superheroCount, name, avatar, category, description);\n    superheroes.push(newHero);\n    emit NewSuperhero(superheroCount, newHero.name, newHero.avatar, newHero.category, newHero.description);\n    return (newHero.id, newHero.name, newHero.avatar, newHero.category, newHero.description);\n  }\n\n  function string_tobytes( string memory s) pure internal returns (bytes memory result){\n    bytes memory b3 = bytes(s);\n    return b3;\n  }\n\n  function getSuperHeroes() public view returns (Superhero[] memory result ) {\n    return superheroes;\n  }\n\n  function getHero(uint id) public view returns(Superhero memory hero) {\n    for(uint i = 0; i<superheroCount;i++) {\n      if(superheroes[i].id==id) {\n        return superheroes[i];\n      }\n    }\n  }\n\n  function getSuperheroReviews(uint superheroID) public view returns(Review[] memory reviews) {\n    return superheroesReviews[superheroID];\n  }\n\n\n}\n",
  "sourcePath": "/Users/dzharkov/TourOfMastery/blockchain/ethereum/superheroes/contracts/Superheroes.sol",
  "compiler": {
    "name": "solc",
    "version": "0.5.0+commit.1d4f565a.Emscripten.clang"
  },
  "schemaVersion": "3.0.0",
  "updatedAt": "2019-04-25T09:52:59.796Z",
  "devdoc": {
    "methods": {}
  },
  "userdoc": {
    "methods": {}
  }
}