{
  "contractName": "Superheroes",
  "abi": [
    {
      "constant": true,
      "inputs": [
        {
          "name": "",
          "type": "uint256"
        }
      ],
      "name": "superheroes",
      "outputs": [
        {
          "name": "id",
          "type": "uint256"
        },
        {
          "name": "name",
          "type": "string"
        },
        {
          "name": "avatar",
          "type": "string"
        },
        {
          "name": "category",
          "type": "string"
        },
        {
          "name": "description",
          "type": "string"
        }
      ],
      "payable": false,
      "stateMutability": "view",
      "type": "function",
      "signature": "0x00cbf868"
    },
    {
      "constant": false,
      "inputs": [
        {
          "name": "superHeroID",
          "type": "uint256"
        },
        {
          "name": "mark",
          "type": "uint256"
        },
        {
          "name": "reviewText",
          "type": "string"
        }
      ],
      "name": "review",
      "outputs": [],
      "payable": false,
      "stateMutability": "nonpayable",
      "type": "function",
      "signature": "0x0938b5a3"
    },
    {
      "constant": false,
      "inputs": [
        {
          "name": "name",
          "type": "string"
        },
        {
          "name": "avatar",
          "type": "string"
        },
        {
          "name": "category",
          "type": "string"
        },
        {
          "name": "description",
          "type": "string"
        }
      ],
      "name": "addSuperhero",
      "outputs": [
        {
          "name": "heroID",
          "type": "uint256"
        },
        {
          "name": "heroName",
          "type": "string"
        },
        {
          "name": "heroAvatar",
          "type": "string"
        },
        {
          "name": "heroCategory",
          "type": "string"
        },
        {
          "name": "heroDescription",
          "type": "string"
        }
      ],
      "payable": false,
      "stateMutability": "nonpayable",
      "type": "function",
      "signature": "0xce171013"
    },
    {
      "constant": true,
      "inputs": [],
      "name": "getSuperHeroes",
      "outputs": [
        {
          "components": [
            {
              "name": "id",
              "type": "uint256"
            },
            {
              "name": "name",
              "type": "string"
            },
            {
              "name": "avatar",
              "type": "string"
            },
            {
              "name": "category",
              "type": "string"
            },
            {
              "name": "description",
              "type": "string"
            }
          ],
          "name": "result",
          "type": "tuple[]"
        }
      ],
      "payable": false,
      "stateMutability": "view",
      "type": "function",
      "signature": "0x8261cf2b"
    },
    {
      "constant": true,
      "inputs": [
        {
          "name": "id",
          "type": "uint256"
        }
      ],
      "name": "getHero",
      "outputs": [
        {
          "components": [
            {
              "name": "id",
              "type": "uint256"
            },
            {
              "name": "name",
              "type": "string"
            },
            {
              "name": "avatar",
              "type": "string"
            },
            {
              "name": "category",
              "type": "string"
            },
            {
              "name": "description",
              "type": "string"
            }
          ],
          "name": "hero",
          "type": "tuple"
        }
      ],
      "payable": false,
      "stateMutability": "view",
      "type": "function",
      "signature": "0x21d80111"
    },
    {
      "constant": true,
      "inputs": [
        {
          "name": "superheroID",
          "type": "uint256"
        }
      ],
      "name": "getSuperheroReviews",
      "outputs": [
        {
          "components": [
            {
              "name": "author",
              "type": "address"
            },
            {
              "name": "mark",
              "type": "uint256"
            },
            {
              "name": "text",
              "type": "string"
            }
          ],
          "name": "reviews",
          "type": "tuple[]"
        }
      ],
      "payable": false,
      "stateMutability": "view",
      "type": "function",
      "signature": "0x28a5fa32"
    }
  ],
  "bytecode": "0x608060405234801561001057600080fd5b506117ad806100206000396000f3fe608060405260043610610077576000357c0100000000000000000000000000000000000000000000000000000000900463ffffffff168062cbf8681461007c5780630938b5a3146100bd57806321d80111146100e657806328a5fa32146101235780638261cf2b14610160578063ce1710131461018b575b600080fd5b34801561008857600080fd5b506100a3600480360361009e91908101906110d3565b6101cc565b6040516100b49594939291906115b2565b60405180910390f35b3480156100c957600080fd5b506100e460048036036100df91908101906110fc565b610471565b005b3480156100f257600080fd5b5061010d600480360361010891908101906110d3565b61061b565b60405161011a9190611521565b60405180910390f35b34801561012f57600080fd5b5061014a600480360361014591908101906110d3565b610932565b604051610157919061149d565b60405180910390f35b34801561016c57600080fd5b50610175610aa7565b60405161018291906114bf565b60405180910390f35b34801561019757600080fd5b506101b260048036036101ad9190810190611010565b610d99565b6040516101c3959493929190611543565b60405180910390f35b6000818154811015156101db57fe5b9060005260206000209060050201600091509050806000015490806001018054600181600116156101000203166002900480601f01602080910402602001604051908101604052809291908181526020018280546001816001161561010002031660029004801561028d5780601f106102625761010080835404028352916020019161028d565b820191906000526020600020905b81548152906001019060200180831161027057829003601f168201915b505050505090806002018054600181600116156101000203166002900480601f01602080910402602001604051908101604052809291908181526020018280546001816001161561010002031660029004801561032b5780601f106103005761010080835404028352916020019161032b565b820191906000526020600020905b81548152906001019060200180831161030e57829003601f168201915b505050505090806003018054600181600116156101000203166002900480601f0160208091040260200160405190810160405280929190818152602001828054600181600116156101000203166002900480156103c95780601f1061039e576101008083540402835291602001916103c9565b820191906000526020600020905b8154815290600101906020018083116103ac57829003601f168201915b505050505090806004018054600181600116156101000203166002900480601f0160208091040260200160405190810160405280929190818152602001828054600181600116156101000203166002900480156104675780601f1061043c57610100808354040283529160200191610467565b820191906000526020600020905b81548152906001019060200180831161044a57829003601f168201915b5050505050905085565b600073ffffffffffffffffffffffffffffffffffffffff163373ffffffffffffffffffffffffffffffffffffffff16141515156104e3576040517f08c379a00000000000000000000000000000000000000000000000000000000081526004016104da906114e1565b60405180910390fd5b60006104ee8461061b565b6000015114151515610535576040517f08c379a000000000000000000000000000000000000000000000000000000000815260040161052c90611501565b60405180910390fd5b600360008481526020019081526020016000206060604051908101604052803373ffffffffffffffffffffffffffffffffffffffff168152602001848152602001838152509080600181540180825580915050906001820390600052602060002090600302016000909192909190915060008201518160000160006101000a81548173ffffffffffffffffffffffffffffffffffffffff021916908373ffffffffffffffffffffffffffffffffffffffff160217905550602082015181600101556040820151816002019080519060200190610612929190610ed1565b50505050505050565b610623610f51565b60008090505b60045481101561092b578260008281548110151561064357fe5b906000526020600020906005020160000154141561091e5760008181548110151561066a57fe5b906000526020600020906005020160a0604051908101604052908160008201548152602001600182018054600181600116156101000203166002900480601f0160208091040260200160405190810160405280929190818152602001828054600181600116156101000203166002900480156107275780601f106106fc57610100808354040283529160200191610727565b820191906000526020600020905b81548152906001019060200180831161070a57829003601f168201915b50505050508152602001600282018054600181600116156101000203166002900480601f0160208091040260200160405190810160405280929190818152602001828054600181600116156101000203166002900480156107c95780601f1061079e576101008083540402835291602001916107c9565b820191906000526020600020905b8154815290600101906020018083116107ac57829003601f168201915b50505050508152602001600382018054600181600116156101000203166002900480601f01602080910402602001604051908101604052809291908181526020018280546001816001161561010002031660029004801561086b5780601f106108405761010080835404028352916020019161086b565b820191906000526020600020905b81548152906001019060200180831161084e57829003601f168201915b50505050508152602001600482018054600181600116156101000203166002900480601f01602080910402602001604051908101604052809291908181526020018280546001816001161561010002031660029004801561090d5780601f106108e25761010080835404028352916020019161090d565b820191906000526020600020905b8154815290600101906020018083116108f057829003601f168201915b50505050508152505091505061092d565b8080600101915050610629565b505b919050565b606060036000838152602001908152602001600020805480602002602001604051908101604052809291908181526020016000905b82821015610a9c5783829060005260206000209060030201606060405190810160405290816000820160009054906101000a900473ffffffffffffffffffffffffffffffffffffffff1673ffffffffffffffffffffffffffffffffffffffff1673ffffffffffffffffffffffffffffffffffffffff16815260200160018201548152602001600282018054600181600116156101000203166002900480601f016020809104026020016040519081016040528092919081815260200182805460018160011615610100020316600290048015610a845780601f10610a5957610100808354040283529160200191610a84565b820191906000526020600020905b815481529060010190602001808311610a6757829003601f168201915b50505050508152505081526020019060010190610967565b505050509050919050565b60606000805480602002602001604051908101604052809291908181526020016000905b82821015610d90578382906000526020600020906005020160a0604051908101604052908160008201548152602001600182018054600181600116156101000203166002900480601f016020809104026020016040519081016040528092919081815260200182805460018160011615610100020316600290048015610b925780601f10610b6757610100808354040283529160200191610b92565b820191906000526020600020905b815481529060010190602001808311610b7557829003601f168201915b50505050508152602001600282018054600181600116156101000203166002900480601f016020809104026020016040519081016040528092919081815260200182805460018160011615610100020316600290048015610c345780601f10610c0957610100808354040283529160200191610c34565b820191906000526020600020905b815481529060010190602001808311610c1757829003601f168201915b50505050508152602001600382018054600181600116156101000203166002900480601f016020809104026020016040519081016040528092919081815260200182805460018160011615610100020316600290048015610cd65780601f10610cab57610100808354040283529160200191610cd6565b820191906000526020600020905b815481529060010190602001808311610cb957829003601f168201915b50505050508152602001600482018054600181600116156101000203166002900480601f016020809104026020016040519081016040528092919081815260200182805460018160011615610100020316600290048015610d785780601f10610d4d57610100808354040283529160200191610d78565b820191906000526020600020905b815481529060010190602001808311610d5b57829003601f168201915b50505050508152505081526020019060010190610acb565b50505050905090565b6000606080606080600460008154809291906001019190505550610dbb610f51565b60a06040519081016040528060045481526020018b81526020018a815260200189815260200188815250905060008190806001815401808255809150509060018203906000526020600020906005020160009091929091909150600082015181600001556020820151816001019080519060200190610e3b929190610ed1565b506040820151816002019080519060200190610e58929190610ed1565b506060820151816003019080519060200190610e75929190610ed1565b506080820151816004019080519060200190610e92929190610ed1565b50505050806000015181602001518260400151836060015184608001518393508292508191508090509550955095509550955050945094509450945094565b828054600181600116156101000203166002900490600052602060002090601f016020900481019282601f10610f1257805160ff1916838001178555610f40565b82800160010185558215610f40579182015b82811115610f3f578251825591602001919060010190610f24565b5b509050610f4d9190610f81565b5090565b60a06040519081016040528060008152602001606081526020016060815260200160608152602001606081525090565b610fa391905b80821115610f9f576000816000905550600101610f87565b5090565b90565b600082601f8301121515610fb957600080fd5b8135610fcc610fc78261164e565b611621565b91508082526020830160208301858383011115610fe857600080fd5b610ff3838284611720565b50505092915050565b60006110088235611716565b905092915050565b6000806000806080858703121561102657600080fd5b600085013567ffffffffffffffff81111561104057600080fd5b61104c87828801610fa6565b945050602085013567ffffffffffffffff81111561106957600080fd5b61107587828801610fa6565b935050604085013567ffffffffffffffff81111561109257600080fd5b61109e87828801610fa6565b925050606085013567ffffffffffffffff8111156110bb57600080fd5b6110c787828801610fa6565b91505092959194509250565b6000602082840312156110e557600080fd5b60006110f384828501610ffc565b91505092915050565b60008060006060848603121561111157600080fd5b600061111f86828701610ffc565b935050602061113086828701610ffc565b925050604084013567ffffffffffffffff81111561114d57600080fd5b61115986828701610fa6565b9150509250925092565b61116c816116da565b82525050565b600061117d82611694565b808452602084019350836020820285016111968561167a565b60005b848110156111cf5783830388526111b1838351611328565b92506111bc826116c0565b9150602088019750600181019050611199565b508196508694505050505092915050565b60006111eb8261169f565b8084526020840193508360208202850161120485611687565b60005b8481101561123d57838303885261121f838351611403565b925061122a826116cd565b9150602088019750600181019050611207565b508196508694505050505092915050565b6000611259826116b5565b80845261126d81602086016020860161172f565b61127681611762565b602085010191505092915050565b600061128f826116aa565b8084526112a381602086016020860161172f565b6112ac81611762565b602085010191505092915050565b6000601782527f596f75206d7573742062652061207265616c20757365720000000000000000006020830152604082019050919050565b6000601082527f4865726f206d75737420657869737473000000000000000000000000000000006020830152604082019050919050565b60006060830160008301516113406000860182611163565b506020830151611353602086018261148e565b506040830151848203604086015261136b8282611284565b9150508091505092915050565b600060a083016000830151611390600086018261148e565b50602083015184820360208601526113a88282611284565b915050604083015184820360408601526113c28282611284565b915050606083015184820360608601526113dc8282611284565b915050608083015184820360808601526113f68282611284565b9150508091505092915050565b600060a08301600083015161141b600086018261148e565b50602083015184820360208601526114338282611284565b9150506040830151848203604086015261144d8282611284565b915050606083015184820360608601526114678282611284565b915050608083015184820360808601526114818282611284565b9150508091505092915050565b6114978161170c565b82525050565b600060208201905081810360008301526114b78184611172565b905092915050565b600060208201905081810360008301526114d981846111e0565b905092915050565b600060208201905081810360008301526114fa816112ba565b9050919050565b6000602082019050818103600083015261151a816112f1565b9050919050565b6000602082019050818103600083015261153b8184611378565b905092915050565b600060a082019050611558600083018861148e565b818103602083015261156a818761124e565b9050818103604083015261157e818661124e565b90508181036060830152611592818561124e565b905081810360808301526115a6818461124e565b90509695505050505050565b600060a0820190506115c7600083018861148e565b81810360208301526115d98187611284565b905081810360408301526115ed8186611284565b905081810360608301526116018185611284565b905081810360808301526116158184611284565b90509695505050505050565b6000604051905081810181811067ffffffffffffffff8211171561164457600080fd5b8060405250919050565b600067ffffffffffffffff82111561166557600080fd5b601f19601f8301169050602081019050919050565b6000602082019050919050565b6000602082019050919050565b600081519050919050565b600081519050919050565b600081519050919050565b600081519050919050565b6000602082019050919050565b6000602082019050919050565b60006116e5826116ec565b9050919050565b600073ffffffffffffffffffffffffffffffffffffffff82169050919050565b6000819050919050565b6000819050919050565b82818337600083830152505050565b60005b8381101561174d578082015181840152602081019050611732565b8381111561175c576000848401525b50505050565b6000601f19601f830116905091905056fea265627a7a723058203118077e285d8ce62e3a04e64c4831e643fc8d66e8311b9ea6d15c36f50d6f8e6c6578706572696d656e74616cf50037",
  "source": "pragma solidity ^0.5.0;\npragma experimental ABIEncoderV2;\n\ncontract Superheroes {\n  Superhero[] public superheroes;\n  mapping (uint => uint) superheroesVotes;\n  mapping (address => uint[]) userVotes;\n  mapping (uint => Review[]) superheroesReviews;\n\n  uint superheroCount;\n\n  struct Review {\n    address author;\n    uint mark;\n    string text;\n  }\n\n  struct Superhero {\n    uint id;\n    string name;\n    string avatar;\n    string category;\n    string description;\n  }\n\n  function review(uint superHeroID, uint mark, string memory reviewText) public {\n    require(msg.sender != address(0), \"You must be a real user\");\n    require(getHero(superHeroID).id!=0, \"Hero must exists\");\n\n    superheroesReviews[superHeroID].push(Review(msg.sender, mark, reviewText));\n  }\n\n  function addSuperhero(string memory name, string memory avatar, string memory category, string memory description) public returns (uint heroID, string memory heroName, string memory heroAvatar, string memory heroCategory, string memory heroDescription) {\n    superheroCount++;\n    Superhero memory newHero = Superhero(superheroCount, name, avatar, category, description);\n    superheroes.push(newHero);\n    return (newHero.id, newHero.name, newHero.avatar, newHero.category, newHero.description);\n  }\n\n  function string_tobytes( string memory s) pure internal returns (bytes memory result){\n    bytes memory b3 = bytes(s);\n    return b3;\n  }\n\n  function getSuperHeroes() public view returns (Superhero[] memory result ) {\n    return superheroes;\n  }\n\n  function getHero(uint id) public view returns(Superhero memory hero) {\n    for(uint i = 0; i<superheroCount;i++) {\n      if(superheroes[i].id==id) {\n        return superheroes[i];\n      }\n    }\n  }\n\n  function getSuperheroReviews(uint superheroID) public view returns(Review[] memory reviews) {\n    return superheroesReviews[superheroID];\n  }\n\n\n}\n",
  "sourcePath": "/Users/dzharkov/TourOfMastery/blockchain/ethereum/superheroes/contracts/Superheroes.sol",
  "compiler": {
    "name": "solc",
    "version": "0.5.0+commit.1d4f565a.Emscripten.clang"
  },
  "schemaVersion": "3.0.0",
  "updatedAt": "2019-04-24T14:53:09.613Z",
  "devdoc": {
    "methods": {}
  },
  "userdoc": {
    "methods": {}
  }
}